:1000000000308A000428000003081F39830083168B
:1000100003170908C039890003131F129F1200300B
:100020000317880083128701880189018313031352
:10003000A001A101FF308316860006148312A201DD
:100040000618A20A831606148312A3010618A30A2F
:10005000831606148312A4010618A40A8316061434
:100060008312A5010618A50A831606148312A60199
:100070000618A60A831606148312A7010618A70AF3
:0E008000831606148312A8010618A80A63004E
:04400E00E22FFF3F5F
:00000001FF
;PIC16F887
;CRC=9BA3  CREATED="22-Apr-23 12:30"
