:1000000000308A00BA2800000130A8009030A70014
:100010000130AA009030A9002808F9002708F8004C
:10002000F90CF80CF90CF80CF90C78089500F90C9F
:10003000790C3039F7001708CF39770497002A0870
:10004000F9002908F800F90CF80CF90CF80CF90C77
:1000500078089B00F90C790C3039F7001D08CF396E
:1000600077049D008A110A125629A801A7010130C0
:10007000AA00F430A9002808F9002708F800F90CB4
:10008000F80CF90CF80CF90C78089500F90C790CBF
:100090003039F7001708CF39770497002A08F9009C
:1000A0002908F800F90CF80CF90CF80CF90C780890
:1000B0009B00F90C790C3039F7001D08CF39770413
:1000C0009D0008000130A800F430A700AA01A90192
:1000D0002808F9002708F800F90CF80CF90CF80CBE
:1000E000F90C78089500F90C790C3039F7001708ED
:1000F000CF39770497002A08F9002908F800F90C8D
:10010000F80CF90CF80CF90C78089B00F90C790C38
:100110003039F7001D08CF3977049D000800A80189
:10012000A701AA01A9012808F9002708F800F90C7D
:10013000F80CF90CF80CF90C78089500F90C790C0E
:100140003039F7001708CF39770497002808F900ED
:100150002708F800F90CF80CF90CF80CF90C7808E1
:100160009B00F90C790C3039F7001D08CF39770462
:100170009D00080003081F398300FF30AB00831681
:1001800003170908C039890003131F129F1200309A
:1001900003178800831287018801890183130313E1
:1001A000A001A1010030831687008312AB00FF304D
:1001B0008316850086000030F8000638831292000E
:1001C000F9308316920083122B112B0883168700B7
:1001D000831207110C30970083169B019C0101309C
:1001E0009D008312AB102B088316870083128710A3
:1001F0000C309D00A801A701AA01A9012808F90057
:100200002708F800F90CF80CF90CF80CF90C780830
:100210009500F90C790C3039F7001708CF397704BD
:1002200097002A08F9002908F800F90CF80CF90CD5
:10023000F80CF90C78089B00F90C790C3039F700B0
:100240001D08CF3977049D00AB112B08831687005A
:10025000831287112B102B08831687008312071037
:10026000831605148312A2010518A20A83168514A9
:100270008312A3018518A30A831605158312A4010E
:100280000519A40A831606148312A5010618A50AE7
:10029000831686148312A6018618A60AA308031DD6
:1002A0005629240B5629A50803190428A308031D61
:1002B0005F29A408031D5F29250B5F293520A308AA
:1002C000031D6729240B6729250B67293520230B7C
:1002D0006F29A408031D6F29A50803196220230BA9
:1002E0007629240B7629A50803196220230B7D2982
:1002F000240B7D29250B7D298F20A308031D86292A
:10030000A408031D8629A50803198F20302963003E
:04400E00E22FFF3F5F
:00000001FF
;PIC16F887
;CRC=1F99  CREATED="22-Apr-23 16:32"
